:020000007D2B56
:10000800FF00030E83018316EC000A08ED008A0145
:100018000B1C0F28772383166D088A006C0E83004B
:06002800FF0E7F0E09002F
:10002E00293083120313FD00FD0B1B28000008006E
:06003E00000000000800B4
:10004400123083120313FC00DA30FD00FD0B282864
:08005400FC0B28280000080045
:10005C0083120317941B35280313871137280313B6
:10006C0087150317141B3D28031307113F2803138F
:10007C0007150317941A45280313871047280313F1
:10008C0087140317141A4D28031307104F28031352
:10009C0007148316691855288312071657288312DC
:1000AC00071287161F208712031794196028031351
:1000BC008711622803138715031714196828031373
:1000CC0007116A28031307150317941870280313D4
:1000DC008710722803138714031714187828031336
:1000EC0007107A28031307148316691880288312C3
:1000FC00071682288312071287161F208712831671
:0C010C00691C8A2822208B28172008007C
:1001180083160313691083120317130894002E2003
:06012800831669140800B3
:0E012E008316031367088A0066088200080023
:10013C00B0288030831203179000C328C030900081
:10014C00C32894309000C328D4309000C32880304A
:10015C009000C328831203171008013A03199F2833
:10016C001008023A0319A4281008033A0319A72807
:10017C001008043A0319AA28AD281103F00010083E
:10018C00F00770089000700894002E2083166910F8
:10019C00EF016F088312031712078400000803197C
:1001AC00E328831603136F088312031712078400C6
:1001BC00000893008C20EF0ACF28831603136914D0
:0201CC00080029
:1001CE00F92880308312031790000C29C03090005C
:1001DE000C29943090000C29D43090000C298030DA
:1001EE0090000C29831203171008013A0319E8280E
:1001FE001008023A0319ED281008033A0319F028E3
:10020E001008043A0319F328F6281103F000100819
:10021E00F007700890008316031369147008831298
:10022E00031794002E2083166910831203171208E9
:0A023E0094002E20831669140800B6
:1002480083120313F8010830FC00700DF80D7408D0
:10025800F80203183129F8070310F00DFC0B2929BF
:0202680008008C
:10026A0083160313871207120710871007118711C5
:10027A00831287120712871107118710071022208D
:10028A00222022208714071487161F208712222073
:10029A0087161F208712222087161F2087122220E6
:1002AA00071087161F208712222087161F20871201
:1002BA008710871587161F20871222208711071497
:1002CA0087161F208712071087161F2087122220E1
:1002DA0087161F208712071487161F2087122220CD
:1002EA00071087161F20871287150715871407140A
:0E02FA0087161F208712222083166914080021
:100308002F2B013083120317900001309100213008
:1003180092009E200A308312ED000130A0006A2B63
:1003280001300317900001309100473092009E2061
:100338000A308312ED000130A0006A2B0130031748
:10034800900001309100393092009E200A308312CB
:10035800ED000130A0006A2B013003179000013036
:1003680091002D3092009E200A308312ED0001305A
:10037800A0006A2B01300317900001309100D8309B
:1003880092009E200A308312ED000130A0006A2BF3
:1003980001300317900001309100CA3092009E206E
:1003A8000A308312ED000130A0006A2B01300317D8
:1003B800900001309100BD3092009E200A308312D7
:1003C800ED000130A0006A2B0130031790000130C6
:1003D8009100213092009E20023083120317900072
:1003E80004309100831603136B08831203179200DD
:1003F800E72002308312031790000530910083161E
:1004080003136A08831203179200E720023083124D
:100418000317900006309100683092009E206A2BE6
:100428000130831203179000013091004730920089
:100438009E20023083120317900004309100831627
:1004480003136B08831203179200E720023083120C
:100458000317900005309100831603136A0883126E
:1004680003179200E720023083120317900006302A
:100478009100683092009E206A2B01308312031786
:10048800900001309100393092009E200230831292
:100498000317900004309100831603136B0883122E
:1004A80003179200E72002308312031790000530EB
:1004B8009100831603136A08831203179200E7203A
:1004C80002308312031790000630910068309200C2
:1004D8009E206A2B0130831203179000013091008F
:1004E8002D3092009E2002308312031790000430B2
:1004F8009100831603136B08831203179200E720F9
:1005080002308312031790000530910083160313FD
:100518006A08831203179200E72002308312031738
:10052800900006309100683092009E206A2B0130BE
:1005380083120317900001309100D83092009E205A
:1005480002308312031790000430910083160313BE
:100558006B08831203179200E720023083120317F7
:10056800900005309100831603136A08831203175D
:100578009200E720023083120317900006309100A2
:10058800683092009E206A2B013083120317900076
:1005980001309100CA3092009E2002308312031766
:1005A800900004309100831603136B08831203171D
:1005B8009200E72002308312031790000530910063
:1005C800831603136A08831203179200E720023088
:1005D80083120317900006309100683092009E2025
:1005E8006A2B013083120317900001309100AD305F
:1005F80092009E200230831203179000043091006D
:10060800831603136B08831203179200E720023046
:1006180083120317900005309100831603136A08AC
:10062800831203179200E720023083120317900009
:1006380006309100683092009E206A2B01308312A8
:100648000317900001309100533092009E20013032
:100658008312A0006A2B831203136E08013A031950
:1006680085296E08023A031994296E08033A03197A
:10067800A2296E08043A0319B0296E08053A03192D
:10068800BE296E08063A0319CC296E08073A0319E1
:10069800DA296E08093A0319E8296E080A3A031993
:1006A800142A6E080B3A0319412A6E080C3A0319EA
:1006B8006E2A6E080D3A03199B2A6E080E3A031922
:0E06C800C82A6E080F3A0319F52A222B0800E3
:1006D60097208A110A128000840AE60A0319E70A9B
:0806E600F003031D6B2B08005B
:0C06EE00831203130608EE000B10080036
:1006FA00CE2483160313EE010A308312ED0083160B
:10070A000317890103138701FF308600FF30831224
:10071A008600FF308316960080308100C8308B0037
:10072A0035210C308312031794002E200608EE00A0
:10073A000A30ED0001308316EE0083120713871387
:10074A006D08003C0318F32B0A30F4006D08F00022
:10075A00242170088316E8000A30F40083126D0819
:10076A00F00024217808F00070088316EA000A30A5
:10077A00F4006808F00024217808F0007008831655
:10078A00EB000A30F4006808F00024217008EF003A
:10079A0030308316EA043030EB04303070048312B0
:1007AA00EF006E08083C0318DB2BED0384210D30A3
:1007BA0083120313FB00AC30FC007730FD00FD0B05
:1007CA00E42BFC0BE42BFB0BE42B01300317940006
:1007DA002E200C30031794002E20A52B6E080F3AFA
:1007EA00031D072C2008003C0318072C01300317AF
:1007FA00900001309100A03092009E2083120717CA
:10080A008316EE0183166E0803192C2C013083120D
:10081A00031794002E200C30031794002E20013069
:10082A000317900001309100613092009E200D3034
:10083A00FB00AF30FC00B630FD00FD0B222CFC0B98
:10084A00222CFB0B222C000083128717072C831201
:10085A000F306E020318332CA0039D2BA52B342CCA
:10099C0020308400483083120313F0003A30831661
:1009AC00E6000430E7006B23A0308400463083124D
:1009BC000313F00082308316E6000430E7006B234B
:1009CC0068308400053083120313F000C83083169E
:0A09DC00E6000430E7006B2308007A
:0208740001344D
:100876005A346F346E346534203431342034413484
:0808860072346D346434003457
:10088E005A346F346E34653420343334203441346A
:08089E0072346D34643400343F
:1008A6005A346F346E34653420343134263432345D
:0C08B6002034413472346D34643400345A
:1008C2005A346F346E346534203432342034413437
:0808D20072346D34643400340B
:1008DA004E346F3420345A346F346E3465342034D5
:0C08EA00413472346D34653464340034E1
:0E08F600423472346534613463346834003443
:10090400533479347334743465346D34203441345D
:0A09140072346D346534643400342D
:10091E00533479347334743465346D342034413443
:10092E0072346D3465346434203469346E3400347A
:10093E0052346534613464347934203474346F3411
:0A094E002034413472346D3400345B
:100958005A346F346E3465342034323426343334A8
:0C0968002034413472346D3464340034A7
:100974005A346F346E34653420343134263433348D
:0C0984002034413472346D34643400348B
:0A099000203453346534633400341E
:04400E00F22F000786
:00000001FF
